{
  "cleanedHeaderFields": {
    "hash": "0xd092b625e9555cbc1b21861e19aff2627d8c3f1a223bc2876cbd0a510a199c5e",
    "parentHash": "0x56f454e789567120c64aecd3654d5b99c3304e5f3a089d213ca3ca0c493457bb",
    "sha3Uncles": "0x1dcc4de8dec75d7aab85b567b6ccd41ad312451b948a7413f0a142fd40d49347",
    "miner": "0x388c818ca8b9251b393131c08a736a67ccb19297",
    "stateRoot": "0x4adfa1fadce6232e1cd83ea06f00e70f1cc12e4158e66b345789575c19cb1905",
    "transactionsRoot": "0xcaa4c873e7722144385232350267b4ef892872e107af9157dda04def30b587a3",
    "receiptsRoot": "0xaf58bf90a5f39ec8d598f5b21f939cca72288f48be44fee0d6a60e074c94889b",
    "logsBloom": "0x0002000000020000100000000000802002000000400402200010000100000b00000001400000000000001100000001840208c00048000800800480000020000000020000000001202802008881000000004000041000000020220c008020000002000000020a000040000000000008400000008020002000020000100000c000020000900802004000000000010480000c0040010100000000200000081010008a800909000060000040428000004042000400020000040220000002000100c401080002080000004002001040000000000001400801000000000808804020000030200840000200000000000010000000000000000880400801000000001000",
    "difficulty": "0x",
    "number": "0xed1cc3",
    "gasLimit": "0x01c9c380",
    "gasUsed": "0x12f7a3",
    "timestamp": "0x6323289b",
    "extraData": "0x",
    "mixHash": "0x5adbc66837e3f7218b6ccb8a1d168431f95788b29ed652ac8c7734be44b0ec34",
    "nonce": "0x0000000000000000",
    "baseFeePerGas": "0x02c2eb9aae"
  },
  "rlp": "0xf90201a056f454e789567120c64aecd3654d5b99c3304e5f3a089d213ca3ca0c493457bba01dcc4de8dec75d7aab85b567b6ccd41ad312451b948a7413f0a142fd40d4934794388c818ca8b9251b393131c08a736a67ccb19297a04adfa1fadce6232e1cd83ea06f00e70f1cc12e4158e66b345789575c19cb1905a0caa4c873e7722144385232350267b4ef892872e107af9157dda04def30b587a3a0af58bf90a5f39ec8d598f5b21f939cca72288f48be44fee0d6a60e074c94889bb901000002000000020000100000000000802002000000400402200010000100000b00000001400000000000001100000001840208c00048000800800480000020000000020000000001202802008881000000004000041000000020220c008020000002000000020a000040000000000008400000008020002000020000100000c000020000900802004000000000010480000c0040010100000000200000081010008a800909000060000040428000004042000400020000040220000002000100c4010800020800000040020010400000000000014008010000000008088040200000302008400002000000000000100000000000000008804008010000000010008083ed1cc38401c9c3808312f7a3846323289b80a05adbc66837e3f7218b6ccb8a1d168431f95788b29ed652ac8c7734be44b0ec348800000000000000008502c2eb9aae",
  "goldenHash": "0xd092b625e9555cbc1b21861e19aff2627d8c3f1a223bc2876cbd0a510a199c5e",
  "calculatedHash": "0xd092b625e9555cbc1b21861e19aff2627d8c3f1a223bc2876cbd0a510a199c5e"
}