{
  "cleanedHeaderFields": {
    "parentHash": "0x56a9bb0302da44b8c0b3df540781424684c3af04d0b7a38d72842b762076a664",
    "sha3Uncles": "0x1dcc4de8dec75d7aab85b567b6ccd41ad312451b948a7413f0a142fd40d49347",
    "miner": "0x0b3b161b8abeb6b04cb95c3e6047f80c120a0292",
    "stateRoot": "0x2ca38a39c5517f658d107c19550334a9820a7393d14857f2c0e0458292668d64",
    "transactionsRoot": "0x5c56184fbce74e9c98d2a51aa2110963396047d84e8ce1ae1785337255cd11e0",
    "receiptsRoot": "0x1707e457973ce280debe93f5d478663d97ad192beea1f2fc65f391db80226e5e",
    "logsBloom": "0xffffffffffffffffffffffffffffffffffffffffffffffffffffffffffffffffffffffffffffffffffffffffffffffffffffffffffffffffffffffffffffffffffffffffffffffffffffffffffffffffffffffffffffffffffffffffffffffffffffffffffffffffffffffffffffffffffffffffffffffffffffffffffffffffffffffffffffffffffffffffffffffffffffffffffffffffffffffffffffffffffffffffffffffffffffffffffffffffffffffffffffffffffffffffffffffffffffffffffffffffffffffffffffffffffffffffffffffffffffffffffffffffffffffffffffffffffffffffffffffffffffffffffffffffffffffffffffffff",
    "difficulty": "0x",
    "number": "0xed14f3",
    "gasLimit": "0x01c9c380",
    "gasUsed": "0x01c97d83",
    "timestamp": "0x6322c97f",
    "extraData": "0x",
    "mixHash": "0xfd7be062e87b2193dff12ca89e90bbf61684e6676df4e86cca6730237863dd23",
    "nonce": "0x0000000000000000",
    "baseFeePerGas": "0x0cc8ac8283"
  },
  "rlp": "0xf90202a056a9bb0302da44b8c0b3df540781424684c3af04d0b7a38d72842b762076a664a01dcc4de8dec75d7aab85b567b6ccd41ad312451b948a7413f0a142fd40d49347940b3b161b8abeb6b04cb95c3e6047f80c120a0292a02ca38a39c5517f658d107c19550334a9820a7393d14857f2c0e0458292668d64a05c56184fbce74e9c98d2a51aa2110963396047d84e8ce1ae1785337255cd11e0a01707e457973ce280debe93f5d478663d97ad192beea1f2fc65f391db80226e5eb90100ffffffffffffffffffffffffffffffffffffffffffffffffffffffffffffffffffffffffffffffffffffffffffffffffffffffffffffffffffffffffffffffffffffffffffffffffffffffffffffffffffffffffffffffffffffffffffffffffffffffffffffffffffffffffffffffffffffffffffffffffffffffffffffffffffffffffffffffffffffffffffffffffffffffffffffffffffffffffffffffffffffffffffffffffffffffffffffffffffffffffffffffffffffffffffffffffffffffffffffffffffffffffffffffffffffffffffffffffffffffffffffffffffffffffffffffffffffffffffffffffffffffffffffffffffffffffffffffff8083ed14f38401c9c3808401c97d83846322c97f80a0fd7be062e87b2193dff12ca89e90bbf61684e6676df4e86cca6730237863dd23880000000000000000850cc8ac8283",
  "goldenHash": "0xe37e1a183a3d1c7234d090bfb7196081635919c26f2e65c67c106513158a7db4",
  "calculatedHash": "0xe37e1a183a3d1c7234d090bfb7196081635919c26f2e65c67c106513158a7db4"
}