{
  "cleanedHeaderFields": {
    "parentHash": "0xc84dd7aa60a7902a064f75c08223cd199312b0d500b07c3f713c621127cb6844",
    "sha3Uncles": "0x1dcc4de8dec75d7aab85b567b6ccd41ad312451b948a7413f0a142fd40d49347",
    "miner": "0x9427a30991170f917d7b83def6e44d26577871ed",
    "stateRoot": "0x2ab56e40a63e0af6aeaa522510eed61c89fbf10a9d70708acf7e41ca53e58620",
    "transactionsRoot": "0x853701200fbfda1e6b60f6860da270ce824ae59a358649109676047f97fd0b15",
    "receiptsRoot": "0x9579bf69a7866c859ea2a18639a437e2882ce3c632203bb8c99e3387c2558617",
    "logsBloom": "0x00288806528080240002280188540243071f082020085228008408820c02842480000200004000004220012c63080800054a9b42a00300250002026e0426981100047000143800004a897868003004200105045160a620000102050050a10090080400100202002e242100d0030c080020001410801012080002805000002860005c480ac87180140481080d00801842408004c02010800d22000840100420800604000104001e128832221000540406002060012016048000100005212008240020c08a000000206000400081a7001400c040404482201101c913000070781819151140204224500a1908608440084080200018980004401ec1200000002c00",
    "difficulty": "0x",
    "number": "0x767bc4",
    "gasLimit": "0x1c9c380",
    "gasUsed": "0x15f26db",
    "timestamp": "0x6348a0ec",
    "extraData": "0x",
    "mixHash": "0xae0ede1e62468bff654bd1e8e702bbaf6c573d29af3175cedce946a4031a2d82",
    "nonce": "0x0000000000000000",
    "baseFeePerGas": "0xb"
  },
  "rlp": "0xf901fda0c84dd7aa60a7902a064f75c08223cd199312b0d500b07c3f713c621127cb6844a01dcc4de8dec75d7aab85b567b6ccd41ad312451b948a7413f0a142fd40d49347949427a30991170f917d7b83def6e44d26577871eda02ab56e40a63e0af6aeaa522510eed61c89fbf10a9d70708acf7e41ca53e58620a0853701200fbfda1e6b60f6860da270ce824ae59a358649109676047f97fd0b15a09579bf69a7866c859ea2a18639a437e2882ce3c632203bb8c99e3387c2558617b9010000288806528080240002280188540243071f082020085228008408820c02842480000200004000004220012c63080800054a9b42a00300250002026e0426981100047000143800004a897868003004200105045160a620000102050050a10090080400100202002e242100d0030c080020001410801012080002805000002860005c480ac87180140481080d00801842408004c02010800d22000840100420800604000104001e128832221000540406002060012016048000100005212008240020c08a000000206000400081a7001400c040404482201101c913000070781819151140204224500a1908608440084080200018980004401ec1200000002c008083767bc48401c9c38084015f26db846348a0ec80a0ae0ede1e62468bff654bd1e8e702bbaf6c573d29af3175cedce946a4031a2d828800000000000000000b",
  "goldenHash": "0x48e7f803b30baa8d1c4619a4f875628a7f6a99c865be9dc2d422ebb3dabbcd4b",
  "calculatedHash": "0x48e7f803b30baa8d1c4619a4f875628a7f6a99c865be9dc2d422ebb3dabbcd4b"
}
